{
  "_format": "hh-sol-artifact-1",
  "contractName": "Exchange",
  "sourceName": "contracts/Exchange.sol",
  "abi": [
    {
      "inputs": [
        {
          "internalType": "address",
          "name": "_feeAccount",
          "type": "address"
        },
        {
          "internalType": "uint256",
          "name": "_feePercent",
          "type": "uint256"
        }
      ],
      "stateMutability": "nonpayable",
      "type": "constructor"
    },
    {
      "anonymous": false,
      "inputs": [
        {
          "indexed": false,
          "internalType": "uint256",
          "name": "_id",
          "type": "uint256"
        },
        {
          "indexed": false,
          "internalType": "address",
          "name": "_creator",
          "type": "address"
        },
        {
          "indexed": false,
          "internalType": "address",
          "name": "_token_creator_wants",
          "type": "address"
        },
        {
          "indexed": false,
          "internalType": "address",
          "name": "_token_creator_is_giving",
          "type": "address"
        },
        {
          "indexed": false,
          "internalType": "uint256",
          "name": "_amount_token_cw",
          "type": "uint256"
        },
        {
          "indexed": false,
          "internalType": "uint256",
          "name": "_amount_token_cg",
          "type": "uint256"
        },
        {
          "indexed": false,
          "internalType": "uint256",
          "name": "_timestamp",
          "type": "uint256"
        }
      ],
      "name": "CancelEvent",
      "type": "event"
    },
    {
      "anonymous": false,
      "inputs": [
        {
          "indexed": false,
          "internalType": "address",
          "name": "_token",
          "type": "address"
        },
        {
          "indexed": false,
          "internalType": "address",
          "name": "_user",
          "type": "address"
        },
        {
          "indexed": false,
          "internalType": "uint256",
          "name": "_amount",
          "type": "uint256"
        },
        {
          "indexed": false,
          "internalType": "uint256",
          "name": "_balance",
          "type": "uint256"
        }
      ],
      "name": "Deposit",
      "type": "event"
    },
    {
      "anonymous": false,
      "inputs": [
        {
          "indexed": false,
          "internalType": "uint256",
          "name": "_id",
          "type": "uint256"
        },
        {
          "indexed": false,
          "internalType": "address",
          "name": "_creator",
          "type": "address"
        },
        {
          "indexed": false,
          "internalType": "address",
          "name": "_token_creator_wants",
          "type": "address"
        },
        {
          "indexed": false,
          "internalType": "address",
          "name": "_token_creator_is_giving",
          "type": "address"
        },
        {
          "indexed": false,
          "internalType": "uint256",
          "name": "_amount_token_cw",
          "type": "uint256"
        },
        {
          "indexed": false,
          "internalType": "uint256",
          "name": "_amount_token_cg",
          "type": "uint256"
        },
        {
          "indexed": false,
          "internalType": "uint256",
          "name": "_timestamp",
          "type": "uint256"
        }
      ],
      "name": "OrderEvent",
      "type": "event"
    },
    {
      "anonymous": false,
      "inputs": [
        {
          "indexed": false,
          "internalType": "uint256",
          "name": "_id",
          "type": "uint256"
        },
        {
          "indexed": false,
          "internalType": "address",
          "name": "_creator",
          "type": "address"
        },
        {
          "indexed": false,
          "internalType": "address",
          "name": "_token_creator_wants",
          "type": "address"
        },
        {
          "indexed": false,
          "internalType": "address",
          "name": "_token_creator_is_giving",
          "type": "address"
        },
        {
          "indexed": false,
          "internalType": "uint256",
          "name": "_amount_token_cw",
          "type": "uint256"
        },
        {
          "indexed": false,
          "internalType": "uint256",
          "name": "_amount_token_cg",
          "type": "uint256"
        },
        {
          "indexed": false,
          "internalType": "address",
          "name": "_the_interested",
          "type": "address"
        },
        {
          "indexed": false,
          "internalType": "uint256",
          "name": "_fee_token_creator_wants",
          "type": "uint256"
        },
        {
          "indexed": false,
          "internalType": "uint256",
          "name": "_timestamp",
          "type": "uint256"
        }
      ],
      "name": "Trade",
      "type": "event"
    },
    {
      "anonymous": false,
      "inputs": [
        {
          "indexed": false,
          "internalType": "address",
          "name": "_token",
          "type": "address"
        },
        {
          "indexed": false,
          "internalType": "address",
          "name": "_user",
          "type": "address"
        },
        {
          "indexed": false,
          "internalType": "uint256",
          "name": "_amount",
          "type": "uint256"
        },
        {
          "indexed": false,
          "internalType": "uint256",
          "name": "_balance",
          "type": "uint256"
        }
      ],
      "name": "Withdraw",
      "type": "event"
    },
    {
      "inputs": [
        {
          "internalType": "address",
          "name": "_token",
          "type": "address"
        },
        {
          "internalType": "address",
          "name": "_user",
          "type": "address"
        }
      ],
      "name": "balanceOf",
      "outputs": [
        {
          "internalType": "uint256",
          "name": "",
          "type": "uint256"
        }
      ],
      "stateMutability": "view",
      "type": "function"
    },
    {
      "inputs": [
        {
          "internalType": "uint256",
          "name": "_id",
          "type": "uint256"
        }
      ],
      "name": "cancelOrder",
      "outputs": [],
      "stateMutability": "nonpayable",
      "type": "function"
    },
    {
      "inputs": [
        {
          "internalType": "uint256",
          "name": "",
          "type": "uint256"
        }
      ],
      "name": "canceledOrders",
      "outputs": [
        {
          "internalType": "bool",
          "name": "",
          "type": "bool"
        }
      ],
      "stateMutability": "view",
      "type": "function"
    },
    {
      "inputs": [
        {
          "internalType": "address",
          "name": "_token",
          "type": "address"
        },
        {
          "internalType": "uint256",
          "name": "_amount",
          "type": "uint256"
        }
      ],
      "name": "depositToken",
      "outputs": [],
      "stateMutability": "nonpayable",
      "type": "function"
    },
    {
      "inputs": [],
      "name": "feeAccount",
      "outputs": [
        {
          "internalType": "address",
          "name": "",
          "type": "address"
        }
      ],
      "stateMutability": "view",
      "type": "function"
    },
    {
      "inputs": [],
      "name": "feePercent",
      "outputs": [
        {
          "internalType": "uint256",
          "name": "",
          "type": "uint256"
        }
      ],
      "stateMutability": "view",
      "type": "function"
    },
    {
      "inputs": [
        {
          "internalType": "uint256",
          "name": "_id",
          "type": "uint256"
        }
      ],
      "name": "fillOrder",
      "outputs": [],
      "stateMutability": "nonpayable",
      "type": "function"
    },
    {
      "inputs": [
        {
          "internalType": "uint256",
          "name": "",
          "type": "uint256"
        }
      ],
      "name": "filledOrders",
      "outputs": [
        {
          "internalType": "bool",
          "name": "",
          "type": "bool"
        }
      ],
      "stateMutability": "view",
      "type": "function"
    },
    {
      "inputs": [
        {
          "internalType": "address",
          "name": "_token_creator_wants",
          "type": "address"
        },
        {
          "internalType": "address",
          "name": "_token_creator_is_giving",
          "type": "address"
        },
        {
          "internalType": "uint256",
          "name": "_amount_token_cw",
          "type": "uint256"
        },
        {
          "internalType": "uint256",
          "name": "_amount_token_cg",
          "type": "uint256"
        }
      ],
      "name": "makeOrder",
      "outputs": [],
      "stateMutability": "nonpayable",
      "type": "function"
    },
    {
      "inputs": [],
      "name": "orderCount",
      "outputs": [
        {
          "internalType": "uint256",
          "name": "",
          "type": "uint256"
        }
      ],
      "stateMutability": "view",
      "type": "function"
    },
    {
      "inputs": [
        {
          "internalType": "uint256",
          "name": "",
          "type": "uint256"
        }
      ],
      "name": "orders",
      "outputs": [
        {
          "internalType": "uint256",
          "name": "_id",
          "type": "uint256"
        },
        {
          "internalType": "address",
          "name": "_creator",
          "type": "address"
        },
        {
          "internalType": "address",
          "name": "_token_creator_wants",
          "type": "address"
        },
        {
          "internalType": "address",
          "name": "_token_creator_is_giving",
          "type": "address"
        },
        {
          "internalType": "uint256",
          "name": "_amount_token_cw",
          "type": "uint256"
        },
        {
          "internalType": "uint256",
          "name": "_amount_token_cg",
          "type": "uint256"
        },
        {
          "internalType": "uint256",
          "name": "_timestamp",
          "type": "uint256"
        }
      ],
      "stateMutability": "view",
      "type": "function"
    },
    {
      "inputs": [
        {
          "internalType": "address",
          "name": "",
          "type": "address"
        },
        {
          "internalType": "address",
          "name": "",
          "type": "address"
        }
      ],
      "name": "tokens",
      "outputs": [
        {
          "internalType": "uint256",
          "name": "",
          "type": "uint256"
        }
      ],
      "stateMutability": "view",
      "type": "function"
    },
    {
      "inputs": [
        {
          "internalType": "address",
          "name": "_token",
          "type": "address"
        },
        {
          "internalType": "uint256",
          "name": "_amount",
          "type": "uint256"
        }
      ],
      "name": "withdrawToken",
      "outputs": [],
      "stateMutability": "nonpayable",
      "type": "function"
    }
  ],
  "bytecode": "0x608060405260006002553480156200001657600080fd5b5060405162001ef838038062001ef883398181016040528101906200003c919062000130565b816000806101000a81548173ffffffffffffffffffffffffffffffffffffffff021916908373ffffffffffffffffffffffffffffffffffffffff16021790555080600181905550505062000177565b600080fd5b600073ffffffffffffffffffffffffffffffffffffffff82169050919050565b6000620000bd8262000090565b9050919050565b620000cf81620000b0565b8114620000db57600080fd5b50565b600081519050620000ef81620000c4565b92915050565b6000819050919050565b6200010a81620000f5565b81146200011657600080fd5b50565b6000815190506200012a81620000ff565b92915050565b600080604083850312156200014a57620001496200008b565b5b60006200015a85828601620000de565b92505060206200016d8582860162000119565b9150509250929050565b611d7180620001876000396000f3fe608060405234801561001057600080fd5b50600436106100cf5760003560e01c806367b830ad1161008c5780639e281a98116100665780639e281a9814610212578063a85c38ef1461022e578063e68fb20714610264578063f7888aec14610280576100cf565b806367b830ad146101a85780637fd6f15c146101c4578063973e2ad3146101e2576100cf565b806316eea7d5146100d45780632453ffa814610104578063338b5dea14610122578063508493bc1461013e578063514fcac71461016e57806365e17c9d1461018a575b600080fd5b6100ee60048036038101906100e991906113e9565b6102b0565b6040516100fb9190611431565b60405180910390f35b61010c6102d0565b604051610119919061145b565b60405180910390f35b61013c600480360381019061013791906114d4565b6102d6565b005b61015860048036038101906101539190611514565b6104b6565b604051610165919061145b565b60405180910390f35b610188600480360381019061018391906113e9565b6104db565b005b610192610691565b60405161019f9190611563565b60405180910390f35b6101c260048036038101906101bd91906113e9565b6106b5565b005b6101cc610923565b6040516101d9919061145b565b60405180910390f35b6101fc60048036038101906101f791906113e9565b610929565b6040516102099190611431565b60405180910390f35b61022c600480360381019061022791906114d4565b610949565b005b610248600480360381019061024391906113e9565b610b73565b60405161025b979695949392919061157e565b60405180910390f35b61027e600480360381019061027991906115ed565b610c15565b005b61029a60048036038101906102959190611514565b610e4d565b6040516102a7919061145b565b60405180910390f35b60066020528060005260406000206000915054906101000a900460ff1681565b60025481565b8173ffffffffffffffffffffffffffffffffffffffff166323b872dd3330846040518463ffffffff1660e01b815260040161031393929190611654565b602060405180830381600087803b15801561032d57600080fd5b505af1158015610341573d6000803e3d6000fd5b505050506040513d601f19601f8201168201806040525081019061036591906116b7565b5080600360008473ffffffffffffffffffffffffffffffffffffffff1673ffffffffffffffffffffffffffffffffffffffff16815260200190815260200160002060003373ffffffffffffffffffffffffffffffffffffffff1673ffffffffffffffffffffffffffffffffffffffff16815260200190815260200160002060008282546103f29190611713565b925050819055507fdcbc1c05240f31ff3ad067ef1ee35ce4997762752e3a095284754544f4c709d7823383600360008773ffffffffffffffffffffffffffffffffffffffff1673ffffffffffffffffffffffffffffffffffffffff16815260200190815260200160002060003373ffffffffffffffffffffffffffffffffffffffff1673ffffffffffffffffffffffffffffffffffffffff168152602001908152602001600020546040516104aa9493929190611769565b60405180910390a15050565b6003602052816000526040600020602052806000526040600020600091509150505481565b600060046000838152602001908152602001600020905081816000015414610538576040517f08c379a000000000000000000000000000000000000000000000000000000000815260040161052f9061180b565b60405180910390fd5b3373ffffffffffffffffffffffffffffffffffffffff168160010160009054906101000a900473ffffffffffffffffffffffffffffffffffffffff1673ffffffffffffffffffffffffffffffffffffffff16146105ca576040517f08c379a00000000000000000000000000000000000000000000000000000000081526004016105c19061189d565b60405180910390fd5b60016005600084815260200190815260200160002060006101000a81548160ff0219169083151502179055507f6f99bf4c1a9df8b96f36fd44ceba31fedce313ef7066d26f7f0ef2c87ce05e998160000154338360020160009054906101000a900473ffffffffffffffffffffffffffffffffffffffff168460030160009054906101000a900473ffffffffffffffffffffffffffffffffffffffff168560040154866005015442604051610685979695949392919061157e565b60405180910390a15050565b60008054906101000a900473ffffffffffffffffffffffffffffffffffffffff1681565b600060046000838152602001908152602001600020905081816000015414610712576040517f08c379a00000000000000000000000000000000000000000000000000000000081526004016107099061180b565b60405180910390fd5b6005600083815260200190815260200160002060009054906101000a900460ff1615610773576040517f08c379a000000000000000000000000000000000000000000000000000000000815260040161076a9061192f565b60405180910390fd5b6006600083815260200190815260200160002060009054906101000a900460ff16156107d4576040517f08c379a00000000000000000000000000000000000000000000000000000000081526004016107cb9061199b565b60405180910390fd5b6000606460015483600401546107ea91906119bb565b6107f49190611a44565b90508082600401546108069190611713565b600360008460020160009054906101000a900473ffffffffffffffffffffffffffffffffffffffff1673ffffffffffffffffffffffffffffffffffffffff1673ffffffffffffffffffffffffffffffffffffffff16815260200190815260200160002060003373ffffffffffffffffffffffffffffffffffffffff1673ffffffffffffffffffffffffffffffffffffffff1681526020019081526020016000205410156108e8576040517f08c379a00000000000000000000000000000000000000000000000000000000081526004016108df90611b0d565b60405180910390fd5b6108f28282610ed4565b60016006600085815260200190815260200160002060006101000a81548160ff021916908315150217905550505050565b60015481565b60056020528060005260406000206000915054906101000a900460ff1681565b806109548333610e4d565b1015610995576040517f08c379a000000000000000000000000000000000000000000000000000000000815260040161098c90611b9f565b60405180910390fd5b80600360008473ffffffffffffffffffffffffffffffffffffffff1673ffffffffffffffffffffffffffffffffffffffff16815260200190815260200160002060003373ffffffffffffffffffffffffffffffffffffffff1673ffffffffffffffffffffffffffffffffffffffff1681526020019081526020016000206000828254610a219190611bbf565b925050819055508173ffffffffffffffffffffffffffffffffffffffff1663a9059cbb33836040518363ffffffff1660e01b8152600401610a63929190611bf3565b602060405180830381600087803b158015610a7d57600080fd5b505af1158015610a91573d6000803e3d6000fd5b505050506040513d601f19601f82011682018060405250810190610ab591906116b7565b507ff341246adaac6f497bc2a656f546ab9e182111d630394f0c57c710a59a2cb567823383600360008773ffffffffffffffffffffffffffffffffffffffff1673ffffffffffffffffffffffffffffffffffffffff16815260200190815260200160002060003373ffffffffffffffffffffffffffffffffffffffff1673ffffffffffffffffffffffffffffffffffffffff16815260200190815260200160002054604051610b679493929190611769565b60405180910390a15050565b60046020528060005260406000206000915090508060000154908060010160009054906101000a900473ffffffffffffffffffffffffffffffffffffffff16908060020160009054906101000a900473ffffffffffffffffffffffffffffffffffffffff16908060030160009054906101000a900473ffffffffffffffffffffffffffffffffffffffff16908060040154908060050154908060060154905087565b80610c208433610e4d565b1015610c61576040517f08c379a0000000000000000000000000000000000000000000000000000000008152600401610c5890611c8e565b60405180910390fd5b6001600254610c709190611713565b6002819055506040518060e0016040528060025481526020013373ffffffffffffffffffffffffffffffffffffffff1681526020018573ffffffffffffffffffffffffffffffffffffffff1681526020018473ffffffffffffffffffffffffffffffffffffffff168152602001838152602001828152602001428152506004600060025481526020019081526020016000206000820151816000015560208201518160010160006101000a81548173ffffffffffffffffffffffffffffffffffffffff021916908373ffffffffffffffffffffffffffffffffffffffff16021790555060408201518160020160006101000a81548173ffffffffffffffffffffffffffffffffffffffff021916908373ffffffffffffffffffffffffffffffffffffffff16021790555060608201518160030160006101000a81548173ffffffffffffffffffffffffffffffffffffffff021916908373ffffffffffffffffffffffffffffffffffffffff1602179055506080820151816004015560a0820151816005015560c082015181600601559050507fc42019b7422bbba7d17eec890f2f1d68608270e0ad8ff0f67c26a6b410537121600254338686868642604051610e3f979695949392919061157e565b60405180910390a150505050565b6000600360008473ffffffffffffffffffffffffffffffffffffffff1673ffffffffffffffffffffffffffffffffffffffff16815260200190815260200160002060008373ffffffffffffffffffffffffffffffffffffffff1673ffffffffffffffffffffffffffffffffffffffff16815260200190815260200160002054905092915050565b8160050154600360008460030160009054906101000a900473ffffffffffffffffffffffffffffffffffffffff1673ffffffffffffffffffffffffffffffffffffffff1673ffffffffffffffffffffffffffffffffffffffff16815260200190815260200160002060008460010160009054906101000a900473ffffffffffffffffffffffffffffffffffffffff1673ffffffffffffffffffffffffffffffffffffffff1673ffffffffffffffffffffffffffffffffffffffff1681526020019081526020016000206000828254610fac9190611bbf565b925050819055508160040154600360008460020160009054906101000a900473ffffffffffffffffffffffffffffffffffffffff1673ffffffffffffffffffffffffffffffffffffffff1673ffffffffffffffffffffffffffffffffffffffff16815260200190815260200160002060008460010160009054906101000a900473ffffffffffffffffffffffffffffffffffffffff1673ffffffffffffffffffffffffffffffffffffffff1673ffffffffffffffffffffffffffffffffffffffff168152602001908152602001600020600082825461108b9190611713565b925050819055508160050154600360008460030160009054906101000a900473ffffffffffffffffffffffffffffffffffffffff1673ffffffffffffffffffffffffffffffffffffffff1673ffffffffffffffffffffffffffffffffffffffff16815260200190815260200160002060003373ffffffffffffffffffffffffffffffffffffffff1673ffffffffffffffffffffffffffffffffffffffff16815260200190815260200160002060008282546111469190611713565b9250508190555080826004015461115d9190611713565b600360008460020160009054906101000a900473ffffffffffffffffffffffffffffffffffffffff1673ffffffffffffffffffffffffffffffffffffffff1673ffffffffffffffffffffffffffffffffffffffff16815260200190815260200160002060003373ffffffffffffffffffffffffffffffffffffffff1673ffffffffffffffffffffffffffffffffffffffff168152602001908152602001600020600082825461120c9190611bbf565b9250508190555080600360008460020160009054906101000a900473ffffffffffffffffffffffffffffffffffffffff1673ffffffffffffffffffffffffffffffffffffffff1673ffffffffffffffffffffffffffffffffffffffff16815260200190815260200160002060008060009054906101000a900473ffffffffffffffffffffffffffffffffffffffff1673ffffffffffffffffffffffffffffffffffffffff1673ffffffffffffffffffffffffffffffffffffffff16815260200190815260200160002060008282546112e49190611713565b925050819055507fd4db2578f9221c75eab5687d9c342f45df2b1b49fdc966598824a3c2261d0ebd82600001548360010160009054906101000a900473ffffffffffffffffffffffffffffffffffffffff168460020160009054906101000a900473ffffffffffffffffffffffffffffffffffffffff168560030160009054906101000a900473ffffffffffffffffffffffffffffffffffffffff16866004015487600501543388426040516113a299989796959493929190611cae565b60405180910390a15050565b600080fd5b6000819050919050565b6113c6816113b3565b81146113d157600080fd5b50565b6000813590506113e3816113bd565b92915050565b6000602082840312156113ff576113fe6113ae565b5b600061140d848285016113d4565b91505092915050565b60008115159050919050565b61142b81611416565b82525050565b60006020820190506114466000830184611422565b92915050565b611455816113b3565b82525050565b6000602082019050611470600083018461144c565b92915050565b600073ffffffffffffffffffffffffffffffffffffffff82169050919050565b60006114a182611476565b9050919050565b6114b181611496565b81146114bc57600080fd5b50565b6000813590506114ce816114a8565b92915050565b600080604083850312156114eb576114ea6113ae565b5b60006114f9858286016114bf565b925050602061150a858286016113d4565b9150509250929050565b6000806040838503121561152b5761152a6113ae565b5b6000611539858286016114bf565b925050602061154a858286016114bf565b9150509250929050565b61155d81611496565b82525050565b60006020820190506115786000830184611554565b92915050565b600060e082019050611593600083018a61144c565b6115a06020830189611554565b6115ad6040830188611554565b6115ba6060830187611554565b6115c7608083018661144c565b6115d460a083018561144c565b6115e160c083018461144c565b98975050505050505050565b60008060008060808587031215611607576116066113ae565b5b6000611615878288016114bf565b9450506020611626878288016114bf565b9350506040611637878288016113d4565b9250506060611648878288016113d4565b91505092959194509250565b60006060820190506116696000830186611554565b6116766020830185611554565b611683604083018461144c565b949350505050565b61169481611416565b811461169f57600080fd5b50565b6000815190506116b18161168b565b92915050565b6000602082840312156116cd576116cc6113ae565b5b60006116db848285016116a2565b91505092915050565b7f4e487b7100000000000000000000000000000000000000000000000000000000600052601160045260246000fd5b600061171e826113b3565b9150611729836113b3565b9250827fffffffffffffffffffffffffffffffffffffffffffffffffffffffffffffffff0382111561175e5761175d6116e4565b5b828201905092915050565b600060808201905061177e6000830187611554565b61178b6020830186611554565b611798604083018561144c565b6117a5606083018461144c565b95945050505050565b600082825260208201905092915050565b7f54686520676976656e20696420646f6573206e6f742065786973747300000000600082015250565b60006117f5601c836117ae565b9150611800826117bf565b602082019050919050565b60006020820190508181036000830152611824816117e8565b9050919050565b7f596f75206e65656420746f20626520746865206f776e657220746f2063616e6360008201527f656c2061206f7264657200000000000000000000000000000000000000000000602082015250565b6000611887602a836117ae565b91506118928261182b565b604082019050919050565b600060208201905081810360008301526118b68161187a565b9050919050565b7f546865206f726465722063616e6e6f7420626520612063616e63656c6564206f60008201527f6e65000000000000000000000000000000000000000000000000000000000000602082015250565b60006119196022836117ae565b9150611924826118bd565b604082019050919050565b600060208201905081810360008301526119488161190c565b9050919050565b7f546865206f726465722063616e6e6f7420626520612066696c6c6564206f6e65600082015250565b60006119856020836117ae565b91506119908261194f565b602082019050919050565b600060208201905081810360008301526119b481611978565b9050919050565b60006119c6826113b3565b91506119d1836113b3565b9250817fffffffffffffffffffffffffffffffffffffffffffffffffffffffffffffffff0483118215151615611a0a57611a096116e4565b5b828202905092915050565b7f4e487b7100000000000000000000000000000000000000000000000000000000600052601260045260246000fd5b6000611a4f826113b3565b9150611a5a836113b3565b925082611a6a57611a69611a15565b5b828204905092915050565b7f596f7520646f6e2774206861766520656e6f756768742062616c616e6365206f60008201527f662074686520746f6b656e20796f7520696e74656e6420746f2074726164652060208201527f746f206d616b65207468652074726164652068617070656e0000000000000000604082015250565b6000611af76058836117ae565b9150611b0282611a75565b606082019050919050565b60006020820190508181036000830152611b2681611aea565b9050919050565b7f596f7520646f6e2774206861766520656e6f756768742062616c616e6365206f60008201527f66207468617420746f6b656e20746f2077697468647261770000000000000000602082015250565b6000611b896038836117ae565b9150611b9482611b2d565b604082019050919050565b60006020820190508181036000830152611bb881611b7c565b9050919050565b6000611bca826113b3565b9150611bd5836113b3565b925082821015611be857611be76116e4565b5b828203905092915050565b6000604082019050611c086000830185611554565b611c15602083018461144c565b9392505050565b7f596f7520646f6e2774206861766520656e6f756768742062616c616e6365207460008201527f6f20676976650000000000000000000000000000000000000000000000000000602082015250565b6000611c786026836117ae565b9150611c8382611c1c565b604082019050919050565b60006020820190508181036000830152611ca781611c6b565b9050919050565b600061012082019050611cc4600083018c61144c565b611cd1602083018b611554565b611cde604083018a611554565b611ceb6060830189611554565b611cf8608083018861144c565b611d0560a083018761144c565b611d1260c0830186611554565b611d1f60e083018561144c565b611d2d61010083018461144c565b9a995050505050505050505056fea264697066735822122041550a53512211e0def5f123485502a6982905c9677f76b3999b52ea285710df64736f6c63430008090033",
  "linkReferences": {},
  "deployedLinkReferences": {}
}