{
  "_format": "hh-sol-artifact-1",
  "contractName": "Exchange",
  "sourceName": "contracts/Exchange.sol",
  "abi": [
    {
      "inputs": [
        {
          "internalType": "address",
          "name": "_feeAccount",
          "type": "address"
        },
        {
          "internalType": "uint256",
          "name": "_feePercent",
          "type": "uint256"
        }
      ],
      "stateMutability": "nonpayable",
      "type": "constructor"
    },
    {
      "anonymous": false,
      "inputs": [
        {
          "indexed": false,
          "internalType": "uint256",
          "name": "_id",
          "type": "uint256"
        },
        {
          "indexed": false,
          "internalType": "address",
          "name": "_user",
          "type": "address"
        },
        {
          "indexed": false,
          "internalType": "address",
          "name": "_tokenGet",
          "type": "address"
        },
        {
          "indexed": false,
          "internalType": "address",
          "name": "_tokenGive",
          "type": "address"
        },
        {
          "indexed": false,
          "internalType": "uint256",
          "name": "_amountGet",
          "type": "uint256"
        },
        {
          "indexed": false,
          "internalType": "uint256",
          "name": "_amountGive",
          "type": "uint256"
        },
        {
          "indexed": false,
          "internalType": "uint256",
          "name": "_timestamp",
          "type": "uint256"
        }
      ],
      "name": "CancelEvent",
      "type": "event"
    },
    {
      "anonymous": false,
      "inputs": [
        {
          "indexed": false,
          "internalType": "address",
          "name": "_token",
          "type": "address"
        },
        {
          "indexed": false,
          "internalType": "address",
          "name": "_user",
          "type": "address"
        },
        {
          "indexed": false,
          "internalType": "uint256",
          "name": "_amount",
          "type": "uint256"
        },
        {
          "indexed": false,
          "internalType": "uint256",
          "name": "_balance",
          "type": "uint256"
        }
      ],
      "name": "Deposit",
      "type": "event"
    },
    {
      "anonymous": false,
      "inputs": [
        {
          "indexed": false,
          "internalType": "uint256",
          "name": "_id",
          "type": "uint256"
        },
        {
          "indexed": false,
          "internalType": "address",
          "name": "_user",
          "type": "address"
        },
        {
          "indexed": false,
          "internalType": "address",
          "name": "_tokenGet",
          "type": "address"
        },
        {
          "indexed": false,
          "internalType": "address",
          "name": "_tokenGive",
          "type": "address"
        },
        {
          "indexed": false,
          "internalType": "uint256",
          "name": "_amountGet",
          "type": "uint256"
        },
        {
          "indexed": false,
          "internalType": "uint256",
          "name": "_amountGive",
          "type": "uint256"
        },
        {
          "indexed": false,
          "internalType": "uint256",
          "name": "_timestamp",
          "type": "uint256"
        }
      ],
      "name": "OrderEvent",
      "type": "event"
    },
    {
      "anonymous": false,
      "inputs": [
        {
          "indexed": false,
          "internalType": "uint256",
          "name": "_id",
          "type": "uint256"
        },
        {
          "indexed": false,
          "internalType": "address",
          "name": "_user",
          "type": "address"
        },
        {
          "indexed": false,
          "internalType": "address",
          "name": "_tokenGet",
          "type": "address"
        },
        {
          "indexed": false,
          "internalType": "address",
          "name": "_tokenGive",
          "type": "address"
        },
        {
          "indexed": false,
          "internalType": "uint256",
          "name": "_amountGet",
          "type": "uint256"
        },
        {
          "indexed": false,
          "internalType": "uint256",
          "name": "_amountGive",
          "type": "uint256"
        },
        {
          "indexed": false,
          "internalType": "address",
          "name": "_creator",
          "type": "address"
        },
        {
          "indexed": false,
          "internalType": "uint256",
          "name": "_timestamp",
          "type": "uint256"
        }
      ],
      "name": "Trade",
      "type": "event"
    },
    {
      "anonymous": false,
      "inputs": [
        {
          "indexed": false,
          "internalType": "address",
          "name": "_token",
          "type": "address"
        },
        {
          "indexed": false,
          "internalType": "address",
          "name": "_user",
          "type": "address"
        },
        {
          "indexed": false,
          "internalType": "uint256",
          "name": "_amount",
          "type": "uint256"
        },
        {
          "indexed": false,
          "internalType": "uint256",
          "name": "_balance",
          "type": "uint256"
        }
      ],
      "name": "Withdraw",
      "type": "event"
    },
    {
      "inputs": [
        {
          "internalType": "address",
          "name": "_token",
          "type": "address"
        },
        {
          "internalType": "address",
          "name": "_user",
          "type": "address"
        }
      ],
      "name": "balanceOf",
      "outputs": [
        {
          "internalType": "uint256",
          "name": "",
          "type": "uint256"
        }
      ],
      "stateMutability": "view",
      "type": "function"
    },
    {
      "inputs": [
        {
          "internalType": "uint256",
          "name": "_id",
          "type": "uint256"
        }
      ],
      "name": "cancelOrder",
      "outputs": [],
      "stateMutability": "nonpayable",
      "type": "function"
    },
    {
      "inputs": [
        {
          "internalType": "uint256",
          "name": "",
          "type": "uint256"
        }
      ],
      "name": "canceledOrders",
      "outputs": [
        {
          "internalType": "bool",
          "name": "",
          "type": "bool"
        }
      ],
      "stateMutability": "view",
      "type": "function"
    },
    {
      "inputs": [
        {
          "internalType": "address",
          "name": "_token",
          "type": "address"
        },
        {
          "internalType": "uint256",
          "name": "_amount",
          "type": "uint256"
        }
      ],
      "name": "depositToken",
      "outputs": [],
      "stateMutability": "nonpayable",
      "type": "function"
    },
    {
      "inputs": [],
      "name": "feeAccount",
      "outputs": [
        {
          "internalType": "address",
          "name": "",
          "type": "address"
        }
      ],
      "stateMutability": "view",
      "type": "function"
    },
    {
      "inputs": [],
      "name": "feePercent",
      "outputs": [
        {
          "internalType": "uint256",
          "name": "",
          "type": "uint256"
        }
      ],
      "stateMutability": "view",
      "type": "function"
    },
    {
      "inputs": [
        {
          "internalType": "uint256",
          "name": "_id",
          "type": "uint256"
        }
      ],
      "name": "fillOrder",
      "outputs": [],
      "stateMutability": "nonpayable",
      "type": "function"
    },
    {
      "inputs": [
        {
          "internalType": "uint256",
          "name": "",
          "type": "uint256"
        }
      ],
      "name": "filledOrders",
      "outputs": [
        {
          "internalType": "bool",
          "name": "",
          "type": "bool"
        }
      ],
      "stateMutability": "view",
      "type": "function"
    },
    {
      "inputs": [
        {
          "internalType": "address",
          "name": "_tokenGet",
          "type": "address"
        },
        {
          "internalType": "address",
          "name": "_tokenGive",
          "type": "address"
        },
        {
          "internalType": "uint256",
          "name": "_amountGet",
          "type": "uint256"
        },
        {
          "internalType": "uint256",
          "name": "_amountGive",
          "type": "uint256"
        }
      ],
      "name": "makeOrder",
      "outputs": [],
      "stateMutability": "nonpayable",
      "type": "function"
    },
    {
      "inputs": [],
      "name": "orderCount",
      "outputs": [
        {
          "internalType": "uint256",
          "name": "",
          "type": "uint256"
        }
      ],
      "stateMutability": "view",
      "type": "function"
    },
    {
      "inputs": [
        {
          "internalType": "uint256",
          "name": "",
          "type": "uint256"
        }
      ],
      "name": "orders",
      "outputs": [
        {
          "internalType": "uint256",
          "name": "_id",
          "type": "uint256"
        },
        {
          "internalType": "address",
          "name": "_user",
          "type": "address"
        },
        {
          "internalType": "address",
          "name": "_tokenGet",
          "type": "address"
        },
        {
          "internalType": "address",
          "name": "_tokenGive",
          "type": "address"
        },
        {
          "internalType": "uint256",
          "name": "_amountGet",
          "type": "uint256"
        },
        {
          "internalType": "uint256",
          "name": "_amountGive",
          "type": "uint256"
        },
        {
          "internalType": "uint256",
          "name": "_timestamp",
          "type": "uint256"
        }
      ],
      "stateMutability": "view",
      "type": "function"
    },
    {
      "inputs": [
        {
          "internalType": "address",
          "name": "",
          "type": "address"
        },
        {
          "internalType": "address",
          "name": "",
          "type": "address"
        }
      ],
      "name": "tokens",
      "outputs": [
        {
          "internalType": "uint256",
          "name": "",
          "type": "uint256"
        }
      ],
      "stateMutability": "view",
      "type": "function"
    },
    {
      "inputs": [
        {
          "internalType": "address",
          "name": "_token",
          "type": "address"
        },
        {
          "internalType": "uint256",
          "name": "_amount",
          "type": "uint256"
        }
      ],
      "name": "withdrawToken",
      "outputs": [],
      "stateMutability": "nonpayable",
      "type": "function"
    }
  ],
  "bytecode": "0x608060405260006002553480156200001657600080fd5b5060405162001ec138038062001ec183398181016040528101906200003c919062000130565b816000806101000a81548173ffffffffffffffffffffffffffffffffffffffff021916908373ffffffffffffffffffffffffffffffffffffffff16021790555080600181905550505062000177565b600080fd5b600073ffffffffffffffffffffffffffffffffffffffff82169050919050565b6000620000bd8262000090565b9050919050565b620000cf81620000b0565b8114620000db57600080fd5b50565b600081519050620000ef81620000c4565b92915050565b6000819050919050565b6200010a81620000f5565b81146200011657600080fd5b50565b6000815190506200012a81620000ff565b92915050565b600080604083850312156200014a57620001496200008b565b5b60006200015a85828601620000de565b92505060206200016d8582860162000119565b9150509250929050565b611d3a80620001876000396000f3fe608060405234801561001057600080fd5b50600436106100cf5760003560e01c806367b830ad1161008c5780639e281a98116100665780639e281a9814610212578063a85c38ef1461022e578063e68fb20714610264578063f7888aec14610280576100cf565b806367b830ad146101a85780637fd6f15c146101c4578063973e2ad3146101e2576100cf565b806316eea7d5146100d45780632453ffa814610104578063338b5dea14610122578063508493bc1461013e578063514fcac71461016e57806365e17c9d1461018a575b600080fd5b6100ee60048036038101906100e991906113e7565b6102b0565b6040516100fb919061142f565b60405180910390f35b61010c6102d0565b6040516101199190611459565b60405180910390f35b61013c600480360381019061013791906114d2565b6102d6565b005b61015860048036038101906101539190611512565b6104b6565b6040516101659190611459565b60405180910390f35b610188600480360381019061018391906113e7565b6104db565b005b610192610691565b60405161019f9190611561565b60405180910390f35b6101c260048036038101906101bd91906113e7565b6106b5565b005b6101cc610923565b6040516101d99190611459565b60405180910390f35b6101fc60048036038101906101f791906113e7565b610929565b604051610209919061142f565b60405180910390f35b61022c600480360381019061022791906114d2565b610949565b005b610248600480360381019061024391906113e7565b610b73565b60405161025b979695949392919061157c565b60405180910390f35b61027e600480360381019061027991906115eb565b610c15565b005b61029a60048036038101906102959190611512565b610e4d565b6040516102a79190611459565b60405180910390f35b60066020528060005260406000206000915054906101000a900460ff1681565b60025481565b8173ffffffffffffffffffffffffffffffffffffffff166323b872dd3330846040518463ffffffff1660e01b815260040161031393929190611652565b602060405180830381600087803b15801561032d57600080fd5b505af1158015610341573d6000803e3d6000fd5b505050506040513d601f19601f8201168201806040525081019061036591906116b5565b5080600360008473ffffffffffffffffffffffffffffffffffffffff1673ffffffffffffffffffffffffffffffffffffffff16815260200190815260200160002060003373ffffffffffffffffffffffffffffffffffffffff1673ffffffffffffffffffffffffffffffffffffffff16815260200190815260200160002060008282546103f29190611711565b925050819055507fdcbc1c05240f31ff3ad067ef1ee35ce4997762752e3a095284754544f4c709d7823383600360008773ffffffffffffffffffffffffffffffffffffffff1673ffffffffffffffffffffffffffffffffffffffff16815260200190815260200160002060003373ffffffffffffffffffffffffffffffffffffffff1673ffffffffffffffffffffffffffffffffffffffff168152602001908152602001600020546040516104aa9493929190611767565b60405180910390a15050565b6003602052816000526040600020602052806000526040600020600091509150505481565b600060046000838152602001908152602001600020905081816000015414610538576040517f08c379a000000000000000000000000000000000000000000000000000000000815260040161052f90611809565b60405180910390fd5b3373ffffffffffffffffffffffffffffffffffffffff168160010160009054906101000a900473ffffffffffffffffffffffffffffffffffffffff1673ffffffffffffffffffffffffffffffffffffffff16146105ca576040517f08c379a00000000000000000000000000000000000000000000000000000000081526004016105c19061189b565b60405180910390fd5b60016005600084815260200190815260200160002060006101000a81548160ff0219169083151502179055507f6f99bf4c1a9df8b96f36fd44ceba31fedce313ef7066d26f7f0ef2c87ce05e998160000154338360020160009054906101000a900473ffffffffffffffffffffffffffffffffffffffff168460030160009054906101000a900473ffffffffffffffffffffffffffffffffffffffff168560040154866005015442604051610685979695949392919061157c565b60405180910390a15050565b60008054906101000a900473ffffffffffffffffffffffffffffffffffffffff1681565b600060046000838152602001908152602001600020905081816000015414610712576040517f08c379a000000000000000000000000000000000000000000000000000000000815260040161070990611809565b60405180910390fd5b6005600083815260200190815260200160002060009054906101000a900460ff1615610773576040517f08c379a000000000000000000000000000000000000000000000000000000000815260040161076a9061192d565b60405180910390fd5b6006600083815260200190815260200160002060009054906101000a900460ff16156107d4576040517f08c379a00000000000000000000000000000000000000000000000000000000081526004016107cb90611999565b60405180910390fd5b6000606460015483600401546107ea91906119b9565b6107f49190611a42565b90508082600401546108069190611711565b600360008460020160009054906101000a900473ffffffffffffffffffffffffffffffffffffffff1673ffffffffffffffffffffffffffffffffffffffff1673ffffffffffffffffffffffffffffffffffffffff16815260200190815260200160002060003373ffffffffffffffffffffffffffffffffffffffff1673ffffffffffffffffffffffffffffffffffffffff1681526020019081526020016000205410156108e8576040517f08c379a00000000000000000000000000000000000000000000000000000000081526004016108df90611ae5565b60405180910390fd5b6108f28282610ed4565b60016006600085815260200190815260200160002060006101000a81548160ff021916908315150217905550505050565b60015481565b60056020528060005260406000206000915054906101000a900460ff1681565b806109548333610e4d565b1015610995576040517f08c379a000000000000000000000000000000000000000000000000000000000815260040161098c90611b77565b60405180910390fd5b80600360008473ffffffffffffffffffffffffffffffffffffffff1673ffffffffffffffffffffffffffffffffffffffff16815260200190815260200160002060003373ffffffffffffffffffffffffffffffffffffffff1673ffffffffffffffffffffffffffffffffffffffff1681526020019081526020016000206000828254610a219190611b97565b925050819055508173ffffffffffffffffffffffffffffffffffffffff1663a9059cbb33836040518363ffffffff1660e01b8152600401610a63929190611bcb565b602060405180830381600087803b158015610a7d57600080fd5b505af1158015610a91573d6000803e3d6000fd5b505050506040513d601f19601f82011682018060405250810190610ab591906116b5565b507ff341246adaac6f497bc2a656f546ab9e182111d630394f0c57c710a59a2cb567823383600360008773ffffffffffffffffffffffffffffffffffffffff1673ffffffffffffffffffffffffffffffffffffffff16815260200190815260200160002060003373ffffffffffffffffffffffffffffffffffffffff1673ffffffffffffffffffffffffffffffffffffffff16815260200190815260200160002054604051610b679493929190611767565b60405180910390a15050565b60046020528060005260406000206000915090508060000154908060010160009054906101000a900473ffffffffffffffffffffffffffffffffffffffff16908060020160009054906101000a900473ffffffffffffffffffffffffffffffffffffffff16908060030160009054906101000a900473ffffffffffffffffffffffffffffffffffffffff16908060040154908060050154908060060154905087565b80610c208433610e4d565b1015610c61576040517f08c379a0000000000000000000000000000000000000000000000000000000008152600401610c5890611c66565b60405180910390fd5b6001600254610c709190611711565b6002819055506040518060e0016040528060025481526020013373ffffffffffffffffffffffffffffffffffffffff1681526020018573ffffffffffffffffffffffffffffffffffffffff1681526020018473ffffffffffffffffffffffffffffffffffffffff168152602001838152602001828152602001428152506004600060025481526020019081526020016000206000820151816000015560208201518160010160006101000a81548173ffffffffffffffffffffffffffffffffffffffff021916908373ffffffffffffffffffffffffffffffffffffffff16021790555060408201518160020160006101000a81548173ffffffffffffffffffffffffffffffffffffffff021916908373ffffffffffffffffffffffffffffffffffffffff16021790555060608201518160030160006101000a81548173ffffffffffffffffffffffffffffffffffffffff021916908373ffffffffffffffffffffffffffffffffffffffff1602179055506080820151816004015560a0820151816005015560c082015181600601559050507fc42019b7422bbba7d17eec890f2f1d68608270e0ad8ff0f67c26a6b410537121600254338686868642604051610e3f979695949392919061157c565b60405180910390a150505050565b6000600360008473ffffffffffffffffffffffffffffffffffffffff1673ffffffffffffffffffffffffffffffffffffffff16815260200190815260200160002060008373ffffffffffffffffffffffffffffffffffffffff1673ffffffffffffffffffffffffffffffffffffffff16815260200190815260200160002054905092915050565b80600360008460020160009054906101000a900473ffffffffffffffffffffffffffffffffffffffff1673ffffffffffffffffffffffffffffffffffffffff1673ffffffffffffffffffffffffffffffffffffffff16815260200190815260200160002060008060009054906101000a900473ffffffffffffffffffffffffffffffffffffffff1673ffffffffffffffffffffffffffffffffffffffff1673ffffffffffffffffffffffffffffffffffffffff1681526020019081526020016000206000828254610fa59190611711565b925050819055508160050154600360008460030160009054906101000a900473ffffffffffffffffffffffffffffffffffffffff1673ffffffffffffffffffffffffffffffffffffffff1673ffffffffffffffffffffffffffffffffffffffff16815260200190815260200160002060008460010160009054906101000a900473ffffffffffffffffffffffffffffffffffffffff1673ffffffffffffffffffffffffffffffffffffffff1673ffffffffffffffffffffffffffffffffffffffff16815260200190815260200160002060008282546110849190611b97565b925050819055508160040154600360008460020160009054906101000a900473ffffffffffffffffffffffffffffffffffffffff1673ffffffffffffffffffffffffffffffffffffffff1673ffffffffffffffffffffffffffffffffffffffff16815260200190815260200160002060008460010160009054906101000a900473ffffffffffffffffffffffffffffffffffffffff1673ffffffffffffffffffffffffffffffffffffffff1673ffffffffffffffffffffffffffffffffffffffff16815260200190815260200160002060008282546111639190611711565b9250508190555080826004015461117a9190611711565b600360008460020160009054906101000a900473ffffffffffffffffffffffffffffffffffffffff1673ffffffffffffffffffffffffffffffffffffffff1673ffffffffffffffffffffffffffffffffffffffff16815260200190815260200160002060003373ffffffffffffffffffffffffffffffffffffffff1673ffffffffffffffffffffffffffffffffffffffff16815260200190815260200160002060008282546112299190611b97565b925050819055508160050154600360008460030160009054906101000a900473ffffffffffffffffffffffffffffffffffffffff1673ffffffffffffffffffffffffffffffffffffffff1673ffffffffffffffffffffffffffffffffffffffff16815260200190815260200160002060003373ffffffffffffffffffffffffffffffffffffffff1673ffffffffffffffffffffffffffffffffffffffff16815260200190815260200160002060008282546112e49190611711565b925050819055507fef4bd84be5e89fce71c28f17c33402b95bf57ac8f87621968ef2b6e3d11f0e908260000154338460020160009054906101000a900473ffffffffffffffffffffffffffffffffffffffff168560030160009054906101000a900473ffffffffffffffffffffffffffffffffffffffff16866004015487600501548860010160009054906101000a900473ffffffffffffffffffffffffffffffffffffffff16426040516113a0989796959493929190611c86565b60405180910390a15050565b600080fd5b6000819050919050565b6113c4816113b1565b81146113cf57600080fd5b50565b6000813590506113e1816113bb565b92915050565b6000602082840312156113fd576113fc6113ac565b5b600061140b848285016113d2565b91505092915050565b60008115159050919050565b61142981611414565b82525050565b60006020820190506114446000830184611420565b92915050565b611453816113b1565b82525050565b600060208201905061146e600083018461144a565b92915050565b600073ffffffffffffffffffffffffffffffffffffffff82169050919050565b600061149f82611474565b9050919050565b6114af81611494565b81146114ba57600080fd5b50565b6000813590506114cc816114a6565b92915050565b600080604083850312156114e9576114e86113ac565b5b60006114f7858286016114bd565b9250506020611508858286016113d2565b9150509250929050565b60008060408385031215611529576115286113ac565b5b6000611537858286016114bd565b9250506020611548858286016114bd565b9150509250929050565b61155b81611494565b82525050565b60006020820190506115766000830184611552565b92915050565b600060e082019050611591600083018a61144a565b61159e6020830189611552565b6115ab6040830188611552565b6115b86060830187611552565b6115c5608083018661144a565b6115d260a083018561144a565b6115df60c083018461144a565b98975050505050505050565b60008060008060808587031215611605576116046113ac565b5b6000611613878288016114bd565b9450506020611624878288016114bd565b9350506040611635878288016113d2565b9250506060611646878288016113d2565b91505092959194509250565b60006060820190506116676000830186611552565b6116746020830185611552565b611681604083018461144a565b949350505050565b61169281611414565b811461169d57600080fd5b50565b6000815190506116af81611689565b92915050565b6000602082840312156116cb576116ca6113ac565b5b60006116d9848285016116a0565b91505092915050565b7f4e487b7100000000000000000000000000000000000000000000000000000000600052601160045260246000fd5b600061171c826113b1565b9150611727836113b1565b9250827fffffffffffffffffffffffffffffffffffffffffffffffffffffffffffffffff0382111561175c5761175b6116e2565b5b828201905092915050565b600060808201905061177c6000830187611552565b6117896020830186611552565b611796604083018561144a565b6117a3606083018461144a565b95945050505050565b600082825260208201905092915050565b7f54686520676976656e20696420646f6573206e6f742065786973747300000000600082015250565b60006117f3601c836117ac565b91506117fe826117bd565b602082019050919050565b60006020820190508181036000830152611822816117e6565b9050919050565b7f596f75206e65656420746f20626520746865206f776e657220746f2063616e6360008201527f656c2061206f7264657200000000000000000000000000000000000000000000602082015250565b6000611885602a836117ac565b915061189082611829565b604082019050919050565b600060208201905081810360008301526118b481611878565b9050919050565b7f546865206f726465722063616e6e6f7420626520612063616e63656c6564206f60008201527f6e65000000000000000000000000000000000000000000000000000000000000602082015250565b60006119176022836117ac565b9150611922826118bb565b604082019050919050565b600060208201905081810360008301526119468161190a565b9050919050565b7f546865206f726465722063616e6e6f7420626520612066696c6c6564206f6e65600082015250565b60006119836020836117ac565b915061198e8261194d565b602082019050919050565b600060208201905081810360008301526119b281611976565b9050919050565b60006119c4826113b1565b91506119cf836113b1565b9250817fffffffffffffffffffffffffffffffffffffffffffffffffffffffffffffffff0483118215151615611a0857611a076116e2565b5b828202905092915050565b7f4e487b7100000000000000000000000000000000000000000000000000000000600052601260045260246000fd5b6000611a4d826113b1565b9150611a58836113b1565b925082611a6857611a67611a13565b5b828204905092915050565b7f596f7520646f6e2774206861766520656e6f756768742062616c616e6365207460008201527f6f2066696c6c20746865206f7264657200000000000000000000000000000000602082015250565b6000611acf6030836117ac565b9150611ada82611a73565b604082019050919050565b60006020820190508181036000830152611afe81611ac2565b9050919050565b7f596f7520646f6e2774206861766520656e6f756768742062616c616e6365206f60008201527f66207468617420746f6b656e20746f2077697468647261770000000000000000602082015250565b6000611b616038836117ac565b9150611b6c82611b05565b604082019050919050565b60006020820190508181036000830152611b9081611b54565b9050919050565b6000611ba2826113b1565b9150611bad836113b1565b925082821015611bc057611bbf6116e2565b5b828203905092915050565b6000604082019050611be06000830185611552565b611bed602083018461144a565b9392505050565b7f596f7520646f6e2774206861766520656e6f756768742062616c616e6365207460008201527f6f20676976650000000000000000000000000000000000000000000000000000602082015250565b6000611c506026836117ac565b9150611c5b82611bf4565b604082019050919050565b60006020820190508181036000830152611c7f81611c43565b9050919050565b600061010082019050611c9c600083018b61144a565b611ca9602083018a611552565b611cb66040830189611552565b611cc36060830188611552565b611cd0608083018761144a565b611cdd60a083018661144a565b611cea60c0830185611552565b611cf760e083018461144a565b999850505050505050505056fea2646970667358221220bea0695a41cc68f469663855764fb2c810612189c13fd3d30ce4ba1e631cd24c64736f6c63430008090033",
  "linkReferences": {},
  "deployedLinkReferences": {}
}